:020000040800F2
:10000000008002205D1D0008591D0008571D0008D2
:10001000571D0008571D0008571D0008000000006C
:10002000000000000000000000000000591D000852
:10003000591D000800000000591D0008591D000846
:10004000571D0008571D0008571D0008571D0008C0
:10005000571D0008571D0008571D0008571D0008B0
:10006000571D0008571D0008571D0008571D0008A0
:10007000571D0008571D0008571D0008571D000890
:10008000571D0008571D0008571D0008571D000880
:10009000571D0008571D0008571D0008571D000870
:1000A000571D0008571D0008571D0008571D000860
:1000B000571D0008571D0008571D0008571D000850
:1000C000571D0008571D0008571D0008571D000840
:1000D000571D0008571D0008571D0008571D000830
:1000E000571D0008571D0008571D0008571D000820
:1000F000571D0008571D0008571D0008571D000810
:10010000571D0008571D0008571D0008571D0008FF
:10011000571D0008571D0008571D0008571D0008EF
:10012000571D0008571D0008571D0008571D0008DF
:10013000571D0008571D0008571D0008571D0008CF
:10014000571D0008571D0008571D0008571D0008BF
:10015000571D0008571D0008571D0008571D0008AF
:10016000571D0008571D0008571D0008571D00089F
:10017000571D0008571D0008571D0008571D00088F
:10018000571D0008571D0008571D0008571D00087F
:10019000571D0008571D0008571D0008571D00086F
:1001A000571D0008571D0008571D000808B5C0B1AD
:1001B0000346827932B102790132D2B202714179B9
:1001C0008A4214D01A790132D2B21A71D9798A428C
:1001D00010D01A7959798A4214BF002201229A71EB
:1001E00008BD064B064A3E21064800F023FB0022CC
:1001F0004271E7E700221A71EBE700BF141E000806
:10020000C81E00081C1E000808B548B100238371F1
:1002100043790133DBB24371C1798B4206D008BD0B
:10022000044B054A4E21054800F004FB00234371AE
:10023000F5E700BF141E0008A81E00081C1E0008D9
:1002400010B582B0022001F065FC002401940094F6
:10025000234628220421022001F094FC204601F0CC
:1002600059FC4FF4306001F0DDFC4FF4186001F0F0
:10027000D9FC40F6821001F0D5FC40F6113001F0B7
:10028000D1FC02B010BD000010B5262001F0B6FD73
:100290000423002202214FF0904001F0CEFB0823FE
:1002A000002202214FF0904001F0C7FB04220721F9
:1002B0004FF0904001F0E1FB082207214FF0904001
:1002C00001F0DBFB104C4FF46141204601F0E2FCF1
:1002D0000921204601F0FCFC0021204601F001FD2F
:1002E0000C21204601F009FD0021204601F0FFFC11
:1002F0000021204601F007FD204601F01AFD2046AE
:1003000001F007FD10BD00BF0044004008B54FF4E8
:10031000306001F087FC4FF4E06001F090FC4FF496
:10032000FA614FF0804001F0B0FC4FF47A714FF069
:10033000804001F0ACFC4FF0804001F0A1FC0221B4
:100340004FF0804001F098FC08BD000008B520B1D6
:10035000002202714271827108BD034B034A1021D1
:10036000034800F067FA00BF141E00080C1F0008C5
:100370001C1E000808B538B182795AB90279437950
:100380009A4209D0002006E0044B054A182105488E
:1003900000F050FA002008BD0120FCE7141E000800
:1003A000FC1E00081C1E000810B558B1044649B1D7
:1003B00042B10160C271FFF7C9FF2046FFF7DAFFC3
:1003C00030B110BD054B064A1E21064800F032FA36
:1003D000054B034A2421034800F02CFA301E000884
:1003E000EC1E00081C1E0008481E000808B540B19D
:1003F000034602682AB1007911541846FFF7D6FE69
:1004000008BD034B034A5821034800F013FA00BF0C
:10041000601E0008D81E00081C1E000870B548B1F8
:100420000C46054661B1066886B1FFF7A3FF98B197
:10043000002070BD0C4B0D4A60210D4800F0FAF908
:100440000C4B0A4A61210A4800F0F4F90A4B074AAA
:100450006221074800F0EEF96B79F35C23702846BF
:10046000FFF7D2FE0120E4E7141E0008B41E0008C6
:100470001C1E00087C1E0008841E00080278A2F1E1
:100480006103DBB2192B01D8203A027070470000DB
:100490000C490A780C4B9B5C18440C4B83FB00C343
:1004A000DB104FF01A0C0CFB1303D8B24130C0B272
:1004B000531CDBB20B70152B02D0024A137070472D
:1004C0000023FAE781000020201F00084FECC44EF3
:1004D00010B40F4C22780F4B9B5CC01A1A300E4997
:1004E00081FB0031C317C3EBE1031A2101FB1303A6
:1004F000D8B24130C0B2531CDBB22370152B04D0EC
:10050000034A13705DF8044B70470023F8E700BFFF
:1005100080000020201F00084FECC44EF8B50138C1
:10052000012813D80D461746002404E031780B4803
:1005300001F0F4FB0134BC420EDA2E192B5D0A2BBC
:10054000F4D10D21054801F0E9FBEFE700F094F943
:10055000052303604FF0FF342046F8BD00440040FF
:1005600000B583B08DF807000DF10700FFF786FF97
:100570004FF400510D4801F05DFA80B99DF8070075
:10058000FFF7A6FF8DF807009DF807100848FFF752
:100590002DFF084801F0D2FB03B05DF804FB9DF885
:1005A0000700FFF775FF8DF80700EDE7000800482A
:1005B0008C0200200044004000B583B084460D4BFF
:1005C00093E8030000908DF80410002307E01CF866
:1005D000031003F108026A4402F8081C0133032BDC
:1005E000F5DD684600F044F9034B188003B05DF870
:1005F00004FB00BF941E00080800002038B5014627
:10060000212818D0624B1B68032B1CD0032B20D051
:10061000032B24D0052B28DC5D4B00221A605C4B99
:100620001B680A2B39D8DFE803F0353940474E62A2
:100630006C788490A800564B1B68032BE2D00133E2
:10064000534A1360EBE74C29E0D1514B04221A6066
:10065000E5E75329DCD14E4B05221A60DFE721295B
:10066000D8D14B4B0A221A60D9E7A1F13003DBB293
:10067000092BD4D90024464B1C60464800F0FCFBF3
:10068000234604E0444AD15C444AD1540133032B4D
:10069000F8DD02E00846FFF763FF38BD4048FFF78A
:1006A000A5FE404801F04AFBF7E73D48FFF79EFEF4
:1006B0003C4801F043FBF0E73948FFF797FE394823
:1006C00001F03CFBE9E73648FFF790FE002405E027
:1006D000324B195D3248FFF789FE0134032CF7DDF8
:1006E000304801F02BFB2A4B00221A60D5E701337A
:1006F000274A13602A48FFF779FE2A4801F01EFBBB
:10070000CBE70133224A1360244B19702448FFF7CA
:100710006DFE244801F012FBBFE701331C4A136051
:100720001E4B59701E48FFF761FE1E4801F006FB84
:10073000B3E70133164A1360184B99701848FFF756
:1007400055FE184801F0FAFAA7E70024104B1C6088
:10075000124DE9701248FFF749FE2846FFF72CFFBB
:10076000234604E00D4AD15C0B4AD1540133032BDC
:10077000F8DD0C4801F0E2FA8FE7054B03221A601E
:100780000748FFF733FE074801F0D8FA85E700BFB6
:100790007C0000209C1E00080400002000000020B7
:1007A000840200200044004000B583B04FF4806212
:1007B0001B491C48FFF7F8FD4FF480621A491B489B
:1007C000FFF7F2FDFFF73CFDFFF75EFDFFF79EFD33
:1007D0004FF4186001F026FA40F6821001F022FA78
:1007E0002023012211464FF0904001F026F94FF4EA
:1007F0000053012200210E4801F01FF90948FFF7BC
:10080000B9FD0028FAD100238DF807300DF107015A
:100810000448FFF703FE9DF80700FFF7EFFEEDE742
:10082000840100208C02002084000020840200202B
:10083000000800481FB514461A46094B1B680546B8
:10084000D8684CB1074B0091CDE9013406492B46DD
:1008500000F018F800F074FC044B1C46F3E700BFEE
:100860000C000020351F0008421F0008701F000800
:100870000A22002100F09ABB014B1868704700BFA4
:100880000C0000200EB403B5014603AB054853F835
:10089000042B0068019300F031F802B05DF804EB1E
:1008A00003B070470C0000209368013B002B10B48C
:1008B000936008DA9469A34201DB0A2903D15DF849
:1008C000044B00F07DBB1368581C1060197008467B
:1008D0005DF8044B7047F8B506460F461446D51828
:1008E000AC4201D1002007E014F8011B3A46304623
:1008F000FFF7DAFF431CF3D1F8BD00002DE9F04FFC
:100900000D469DB014469846064618B183690BB94A
:1009100000F038FD884B9D421BD175686B6ED9077E
:1009200005D4AB899A0502D4A86D00F0C9FDAB8946
:100930001B0701D52B69EBB92946304600F092FB25
:10094000C0B16B6EDC070ED54FF0FF301DB0BDE8B7
:10095000F08F7A4B9D4201D1B568DFE7784B9D421D
:1009600008BFF568DAE7AB899805EDD4A86D00F00B
:10097000A8FDE9E70023099320238DF82930CDF85D
:100980000C803023DFF8BC818DF82A304FF001094C
:1009900023469A4613F8012B0AB1252AF9D1BAEB5E
:1009A000040B0BD05B46224629463046FFF793FFE7
:1009B000013000F0A980099A5A4409929AF800304F
:1009C000002B00F0A18000234FF0FF32CDE905237A
:1009D0000AF1010A049307938DF853301A93544691
:1009E000052214F8011B574800F0D2FD049AD8B92B
:1009F000D10644BF20238DF85330130744BF2B2367
:100A00008DF853309AF800302A2B15D0079A5446A7
:100A100000204FF00A0C214611F8013B303B092B16
:100A20004DD9B0B1079214E0A0EB080309FA03F323
:100A300013430493A246D2E7039B191D1B6803913D
:100A4000002BBBBF5B4242F0020207930793B8BF83
:100A5000049223782E2B0CD163782A2B34D1039B5C
:100A60001A1D1B680392002BB8BF4FF0FF330234EE
:100A70000593DFF8E0A021780322504600F088FDBE
:100A800038B1049BA0EB0A0040228240134301349A
:100A9000049314F8011B2C488DF82810062200F04E
:100AA00077FD00283FD0294B1BBB039B073323F066
:100AB000070308330393099B3B44099368E70CFB46
:100AC00002320C460120A6E70023013405931946A3
:100AD0004FF00A0C204610F8012B303A092A03D9AE
:100AE000002BC6D00591C4E70CFB0121044601236D
:100AF000F0E703AB00932A46154B04A93046AFF349
:100B000000800746781CD6D16B6ED90705D4AB8917
:100B10009A0502D4A86D00F0D4FCAB895B063FF5C2
:100B200013AF099812E703AB00932A46084B04A9B8
:100B3000304600F07FF8E4E7CC200008EC20000805
:100B4000AC200008781F0008821F00080000000089
:100B5000D70800087E1F00082DE9F0471646994681
:100B60008A680B69DDF820809342B8BF1346336072
:100B700091F8432007460C460AB1013333602368DD
:100B8000990642BF336802333360256815F00605C5
:100B900006D104F1190AE36832689B1AAB4226DCDD
:100BA00094F84320131E226818BF012392062BD409
:100BB00004F1430249463846C04701301ED023683D
:100BC000226903F00603042B02BFE5683368ED1ABF
:100BD000A3680CBF25EAE57500259342C4BF9B1AA4
:100BE000ED1800261A34B5421AD1002008E001237E
:100BF000524649463846C047013003D14FF0FF30D6
:100C0000BDE8F0870135C6E7E1185A1C302081F8AD
:100C10004300224494F8451082F843100233C7E79A
:100C20000123224649463846C0470130E6D0013606
:100C3000D9E700002DE9FF470F7E0C9D782F9146E4
:100C400080460C469A4601F1430207D8622F0AD823
:100C5000002F00F0D480582F00F0C08004F142052E
:100C600084F842703AE0A7F16303152BF6D801A18E
:100C700051F823F0CD0C0008E10C00085D0C0008D1
:100C80005D0C00085D0C00085D0C0008E10C00081C
:100C90005D0C00085D0C00085D0C00085D0C000890
:100CA000E50D00080D0D00089F0D00085D0C000803
:100CB0005D0C0008070E00085D0C00080D0D000813
:100CC0005D0C00085D0C0008A70D00082B681A1DBC
:100CD0001B682A6004F1420584F8423001239FE03A
:100CE00020682B68070603F10401296001D51E68FE
:100CF00003E04606FBD5B3F90060002E03DA2D238E
:100D0000764284F843305A480A2312E02B68206860
:100D1000191D2960050601D51E6802E04106FBD5B4
:100D20001E8853486F2F0CBF08230A23002184F824
:100D300043106568A560002DA2BF216821F0040161
:100D400021600EB9002D4BD01546B6FBF3F103FB25
:100D50001167C75D05F8017D3746BB420E46F4D9E1
:100D6000082B0BD12368DE0708D5236961689942F7
:100D7000DEBF302305F8013C05F1FF35521B22612F
:100D8000CDF800A04B4603AA21464046FFF7E4FEFB
:100D900001304AD14FF0FF3004B0BDE8F08723683E
:100DA00043F0200323603348782784F84570236894
:100DB00029681F0651F8046B02D45F0648BFB6B21B
:100DC000DF0748BF43F02003296048BF23601EB9F6
:100DD000236823F0200323601023A7E72448E4E7D7
:100DE0001546BDE72B6826686169181D2860350621
:100DF0001B6801D5196002E07006FBD5198000233D
:100E000023611546BCE72B681A1D2A601D686268BD
:100E10000021284600F0BCFB08B1401B60606368FD
:100E20002361002384F84330AAE723692A46494610
:100E30004046D0470130ADD023689B0713D4E0680B
:100E4000039B9842B8BF1846A6E70123324649469D
:100E50004046D04701309DD00135E36803995B1AC5
:100E6000AB42F2DCEBE7002504F11906F5E700BF21
:100E7000891F00089A1F00080FB40A4B13B51C689D
:100E800024B1A36913B9204600F07CFA05AB049A9B
:100E9000A16801932046FFF731FD02B0BDE8104084
:100EA00004B070470C000020012B2DE9F04701D061
:100EB000242B06D9FFF7E0FC162303600020BDE8D1
:100EC000F087DFF8E4C00D462E4615F8014B1CF8FC
:100ED000047017F00807F7D12D2C32D12C78012798
:100EE000B51C002B5BD0102B09D1302C07D12C78EE
:100EF00004F0DF04582C4DD16C781023023507F133
:100F0000004808F1FF384FF0000EB8FBF3F97646C1
:100F100003FB198AA4F1300CBCF1090F16D8644602
:100F2000A34224DDBEF1FF3F08D0B1451CD301D15F
:100F3000A24519DB06FB03464FF0010E15F8014BE5
:100F4000E8E72B2C04BF2C78B51CCAE7A4F1410CB0
:100F5000BCF1190F01D8373CE2E7A4F1610CBCF1F8
:100F6000190F04D8573CDBE74FF0FF3EE6E7BEF130
:100F7000FF3F05D122230360464642B930469EE733
:100F800007B17642002AF9D0BEF1000F00D0691EE9
:100F90001160F3E73024002BB1D10823AFE7302CE8
:100FA000A5D00A23ABE700BFAC1F000813460A46D2
:100FB000014602480068FFF777BF00BF0C00002021
:100FC000F8B50E461446054618B183690BB900F012
:100FD000D9F9214B9C422BD16C68A369A360A389EA
:100FE0001A072FD523696BB323692068C01A636978
:100FF000F6B28342374604DC2146284600F02EF93B
:1010000030BBA368013BA36023685A1C22601E709A
:1010100063690130834204D0A389DB0706D50A2E19
:1010200004D12146284600F019F988B93846F8BDA0
:101030000A4B9C4201D1AC68CFE7094B9C4208BFE8
:10104000EC68CAE72146284600F00CF80028CBD00F
:101050004FF0FF37EAE700BFCC200008EC20000883
:10106000AC200008324B70B51D6806460C4625B111
:10107000AB6913B9284600F085F92E4B9C420FD17D
:101080006C68A389B4F90C2019072CD4DD0611D49F
:101090000923336042F04003A3814FF0FF303EE06C
:1010A000254B9C4201D1AC68EBE7244B9C4208BF26
:1010B000EC68E6E7580712D5616B41B104F14403CF
:1010C000994202D0304600F0BBFA00236363A38943
:1010D00023F02403A3810023636023692360A38991
:1010E00043F00803A38123694BB9A38903F4207358
:1010F000B3F5007F03D02146304600F009FAA089FD
:10110000B4F90C2010F001030AD00023A360636936
:101110005B42A361236943B910F08000BAD170BD6E
:10112000810758BF6369A360F4E70020F7E700BFB9
:101130000C000020CC200008EC200008AC200008A7
:1011400008B5062000F05AFB012000F071FC0000F9
:101150008A892DE9F041054610070C4658D44B68A2
:10116000002B05DC0B6C002B02DC0020BDE8F081BD
:10117000E66A002EF9D0002312F480522F68216A0B
:101180002B6032D0606DA3895A0705D56368C01AF9
:10119000636B0BB1236CC01A00230246E66A216A16
:1011A0002846B047431CA38906D129681D292BD89E
:1011B000294A0A41D60727D400226260D90422694D
:1011C000226004D5421C01D12B6803B96065616BB4
:1011D0002F600029C9D004F14403994202D0284667
:1011E00000F02EFA00206063C0E701232846B047D4
:1011F000411CC8D12B68002BC5D01D2B01D0162B4C
:1012000001D12F60B1E7A38943F04003A381ADE78B
:101210000F69002FA9D093070E6808BF4B690F60B4
:1012200018BF0023A6EB07088B60B8F1000F9CDD08
:10123000216AA66A43463A462846B047002806DC9B
:10124000A38943F04003A3814FF0FF308EE70744AA
:10125000A8EB0008E9E700BFFEFFBFDF38B50B6968
:1012600005460C4613B90025284638BD18B18369D8
:101270000BB900F087F8144B9C421BD16C68B4F991
:101280000C30002BEFD0626ED00704D4990502D445
:10129000A06D00F015F928462146FFF759FF636E4F
:1012A000DA070546E0D4A3899B05DDD4A06D00F0E4
:1012B00008F9D9E7054B9C4201D1AC68DFE7044B44
:1012C0009C4208BFEC68DAE7CC200008EC2000085C
:1012D000AC200008002310B50446C0E90033C0E983
:1012E0000433836081814366C28183611946082289
:1012F0005C3000F09DF9054B6362054BA362054B22
:10130000E362054B2462236310BD00BF351800085B
:10131000571800088F180008B3180008014900F09A
:10132000AFB800BF5D12000870B568234D1E5D4365
:101330000E4605F1740100F0CFF9044640B10021DA
:10134000C0E900160C30A06005F1680200F070F9E9
:10135000204670BD014800F0B3B800BF95020020E0
:10136000014800F0AEB800BF95020020014800F02F
:10137000A7B800BF96020020014800F0A2B800BF45
:101380009602002010B50446FFF7F0FFA3691BB1D9
:10139000BDE81040FFF7F0BFC4E912332365134BDB
:1013A000134A1B68A262A34204BF0123A361204623
:1013B00000F020F86060204600F01CF8A060204695
:1013C00000F018F80022E06004216068FFF782FF57
:1013D000A06801220921FFF77DFFE06802221221A7
:1013E000FFF778FF0123A361D2E700BF741F000855
:1013F0001D130008F8B50746FFF7ACFF1E4B1E682B
:10140000B36913B93046FFF7BDFF4836D6E901345A
:10141000013B03D533680BB33668F7E7B4F90C50DA
:10142000D5B9164BE36004F15800656600F047F843
:10143000FFF796FFC4E90155C4E904552560A5618D
:101440000822294604F15C0000F0F2F8C4E90D55C9
:10145000C4E912552046F8BD6834D9E7042138465E
:10146000FFF762FF044630600028D5D1FFF778FF10
:101470000C233B60EEE700BF741F00080100FFFF74
:101480002DE9F8430646884600F148040027D4E9D0
:101490000195B9F1010905D52468002CF7D138462A
:1014A000BDE8F883AB89012B07D9B5F90E300133BC
:1014B00003D029463046C04707436835E9E77047FF
:1014C0007047704770B50C46B1F90E10002996B000
:1014D00015461E460DDAA38913F0800F4FF0000168
:1014E0000CBF4FF480634023002031602B6016B0A6
:1014F00070BD6A4600F004FA0028ECDB019901F4A3
:101500007041A1F50053594259414FF48063EBE714
:101510008B8973B59D0706460C4607D504F1470332
:10152000236023610123636102B070BD01AB6A4691
:10153000FFF7C8FF00990546304600F0CDF848B9DE
:10154000B4F90C309A05EFD423F0030343F00203FF
:10155000A381E3E70D4BB362A389206043F08003CE
:10156000A381009B6361019B20615BB1B4F90E1004
:10157000304600F0D7F928B1A38923F0030343F0E4
:101580000103A381A3891D43A581CDE71D13000895
:1015900001F0FF01102A2BDB10F0070F08D010F824
:1015A000013B013A8B422DD010F0070F42B3F6D128
:1015B000F0B441EA012141EA014122F007047FF041
:1015C00000070023F0E80256083C85EA010586EA98
:1015D000010685FA47F5A3FA87F586FA47F6A5FAD4
:1015E00087F68EB9EED1F0BC01F0FF0102F00702E0
:1015F00032B110F8013B013A83EA010313B1F8D18B
:101600000020704701387047002D06BF354603386B
:10161000073815F0010F07D1013015F4807F02BFA4
:10162000013015F4C03F0130F0BC0138704700BFF5
:1016300002440346934200D1704703F8011BF9E7C7
:1016400037B5002944D051F8043C0190002BA1F19A
:101650000404B8BFE41800F087F91E4A0198136823
:1016600033B96360146003B0BDE8304000F082B964
:10167000A34208D9256861198B4201BF19685B68CC
:1016800049192160EDE71A465B680BB1A342FAD90C
:1016900011685518A5420BD1246821445418A3425F
:1016A0001160E0D11C685B6853600C441460DAE799
:1016B00002D90C230360D6E7256861198B4204BF69
:1016C00019685B68636004BF491921605460CAE708
:1016D00003B030BD98020020F8B5CD1C25F00305FD
:1016E00008350C2D38BF0C25002D064601DBA9421C
:1016F00003D90C2333600020F8BD00F035F92149EF
:101700000A6814469CB9204F3B6823B921463046ED
:1017100000F03CF838602946304600F037F8431CAA
:1017200023D10C233360304600F024F9E3E723682B
:101730005B1B17D40B2B03D923601C44256004E0EA
:101740006368A2420CBF0B605360304600F012F990
:1017500004F10B00231D20F00700C21ACCD01B1A85
:10176000A350C9E722466468CCE7C41C24F00304F4
:10177000A042E3D0211A304600F008F80130DDD154
:10178000CFE700BF980200209C02002038B5064D2C
:101790000023044608462B6000F03CF9431C02D1AC
:1017A0002B6803B1236038BDA00200201F2938B583
:1017B00004460D4604D9162303604FF0FF3038BDB0
:1017C000426C12B152F821304BB9204600F030F88B
:1017D0002A4601462046BDE8384000F017B8012BE4
:1017E0000AD0591C03D1162303600120E7E7002427
:1017F00042F82540284698470020E0E7024B014682
:101800001868FFF7D3BF00BF0C00002038B5074DA4
:1018100000230446084611462B6000F0E3F8431C01
:1018200002D12B6803B1236038BD00BFA0020020A5
:1018300000F0C8B810B50C46B1F90E1000F0A0F8D1
:101840000028ABBF636DA3891B1823F48053ACBF82
:101850006365A38110BD2DE9F0411F468B89DB052F
:1018600005460C46164605D5B1F90E100223002296
:1018700000F068F8A389B4F90E1023F48053A38113
:1018800032463B462846BDE8F04100F017B810B597
:101890000C46B1F90E1000F055F8431CA38915BF92
:1018A000606523F4805343F48053A38118BFA38160
:1018B00010BDB1F90E1000F013B8000038B5074D97
:1018C00004460846114600222A601A46FEF726FE04
:1018D000431C02D12B6803B1236038BDA002002055
:1018E00038B5064D0023044608462B6000F05AF830
:1018F000431C02D12B6803B1236038BDA002002035
:1019000038B5074D00230446084611462B6000F009
:1019100051F8431C02D12B6803B1236038BD00BFCE
:10192000A002002038B5064D0023044608462B606F
:1019300000F050F8431C02D12B6803B1236038BD7E
:10194000A002002038B5074D044608461146002283
:101950002A601A4600F04EF8431C02D12B6803B1EE
:10196000236038BDA00200200148FFF7A9BD00BFD9
:10197000940200200148FFF7A4BD00BF940200209C
:1019800038B5074D04460846114600222A601A461B
:1019900000F038F8431C02D12B6803B1236038BD36
:1019A000A0020020024B58221A604FF0FF3070470F
:1019B000A0020020024B58221A604FF0FF307047FF
:1019C000A0020020024B58221A604FF0FF307047EF
:1019D000A0020020024B58221A600020704700BF6E
:1019E000A0020020024B58221A604FF0FF307047CF
:1019F000A0020020024B58221A604FF0FF307047BF
:101A0000A0020020024B58221A604FF0FF307047AE
:101A1000A0020020044A05491368002B08BF0B46AA
:101A20001844106018467047A4020020A802002045
:101A3000FEE700BF0069084070472DE9F0410568E6
:101A4000C46800264FF0030E43FA06F7FF070DD5D2
:101A500077000EFA07FC01FA07F825EA0C0524EADC
:101A60000C0402FA07F748EA05053C430136102E3C
:101A7000EAD10560C460BDE8F081F0B5066A456A48
:101A800000234FF00F0C42FA03F4E70707D59C0040
:101A90000CFA04F726EA070601FA04F42643013398
:101AA000082BF0D100234FF00F0C03F1080442FA89
:101AB00004F4E40707D59C000CFA04F725EA0705AF
:101AC00001FA04F425430133082BEED10662456286
:101AD000F0BD0000CA4008B502F003020A4B022A1A
:101AE0009B680BD0032A0BD0012A06D1C3F3031045
:101AF00000F0B6F8054B1B68584308BD0448FCE7E6
:101B00004FF40040F9E700BF0010024078000020C9
:101B10000024F400062831D8DFE800F0040A0F148E
:101B200019212900164A136843F080731360704727
:101B3000134A136843F48033F8E7114A136843F4F7
:101B40008073F3E70E4A136843F00103EEE70C4A93
:101B5000D2F8903043F00103C2F890307047084A41
:101B6000D2F8943043F00103C2F894307047044A2D
:101B7000D2F8983043F00103C2F89830704700BFA4
:101B80000010024010B5039C0139640644EA0114B8
:101B90000299044344EA41541C4344EA0224024BA0
:101BA00044F08074DC6010BD00100240164A904280
:101BB000034602F5C83206D1D2F88820134B0A2119
:101BC0001868FFF787BF1249884204D1D2F88820ED
:101BD000104B0021F4E70D4908680F498B4203D1EF
:101BE000D2F888200221ECE70C498B4203D1D2F8CD
:101BF00088200421E5E70A49D2F888208B420CBFEF
:101C000006210821DDE700BF0080004074000020AD
:101C100000380140700000200044004000480040AF
:101C2000004C0040430903F1804303F5043300F006
:101C30001F001968012282400A431A607047430955
:101C400003F1804303F5043300F01F0019680122FB
:101C5000824011431960196821EA02021A60704734
:101C6000072803464FF0010005D90B2B94BF073B13
:101C7000063B984080B27047C3680B43C36070470F
:101C8000036843F001030360704781627047C162DB
:101C90007047000038B504460D46FFF787FF0B4A32
:101CA00094424FEA55030BD1B0FBF5F205FB12004D
:101CB00003EB0023B3FBF5F303EB0223E36038BD32
:101CC0001844B0FBF5F0E060F9E700BF0080004089
:101CD000036808290CBF23F4805343F48053036046
:101CE0007047436823F440530B43436070470368D5
:101CF00023F4C0630B4303607047036823F00C03B5
:101D00000B4303607047836823F440730B43836085
:101D10007047036843F001030360704738B5044619
:101D20000D4600F014F829462046BDE8384000F082
:101D30000AB8036843F0200303607047036843F068
:101D4000800303607047C1F3080181627047C36973
:101D50001B06FCD57047FEE77047000038B51D4AEA
:101D60001D4B1E498B4220D31D4A0021934221D393
:101D70004FF0E0231B4CD3F8142D1B4D42F400729E
:101D8000C3F8142DD3F8882D42F47002C3F8882DBF
:101D9000AC4212D3154C164DAC4212D3FEF704FDE3
:101DA000144C154DAC4210D338BD52F8040B43F817
:101DB000040BD7E743F8041BD8E754F8043B9847D3
:101DC000E6E754F8043B9847E6E754F8043B9847A5
:101DD000E8E700BF0C210008000000207C00002084
:101DE000A80200200C2100080C2100080C2100088A
:101DF0000C2100080C2100080C210008044B4209AA
:101E000003EB820300F01F00012282401A6070473A
:101E100000E100E06D794275666600007372632F21
:101E2000636972636275666665722E680000000001
:101E30006D794275666620262620627566662026C4
:101E4000262073697A65000062756666657249735B
:101E5000456D707479286D794275666629000000B9
:101E60006D7942756666202626206D794275666614
:101E70002D3E6275666665720000000064617461E3
:101E8000000000006D79427566662D3E62756666DB
:101E9000657200003030303000000000496E76611D
:101EA0006C696421000000006261636B506F696EB1
:101EB00074657200636972636275666665725F64F9
:101EC0006571756575650000616476616E63655066
:101ED0006F696E746572000063697263627566662D
:101EE00065725F71756575650000000063697263F6
:101EF0006275666665725F696E69740062756666B2
:101F000065724973456D707479000000636972638E
:101F10006275666665725F726573657400000000C5
:101F2000424F4C44464541524C455353434F4E4615
:101F30004944454E542C2066756E6374696F6E3A41
:101F40002000617373657274696F6E20222573229D
:101F5000206661696C65643A2066696C652022259B
:101F600073222C206C696E65202564257325730A05
:101F70000000000010000020232D302B2000686C92
:101F80004C0065666745464700303132333435369C
:101F900037383941424344454600303132333435D5
:101FA000363738396162636465660000202020207E
:101FB00020202020202828282828202020202020F9
:101FC00020202020202020202020202088101010D9
:101FD0001010101010101010101010100404040431
:101FE00004040404040410101010101010414141A6
:101FF0004141410101010101010101010101010111
:1020000001010101010101101010101010424242A3
:1020100042424202020202020202020202020202E0
:102020000202020202020210101010200000000042
:1020300000000000000000000000000000000000A0
:102040000000000000000000000000000000000090
:102050000000000000000000000000000000000080
:102060000000000000000000000000000000000070
:102070000000000000000000000000000000000060
:102080000000000000000000000000000000000050
:102090000000000000000000000000000000000040
:1020A0000000000000000000000000000000000030
:1020B0000000000000000000000000000000000020
:1020C0000000000000000000000000000000000010
:1020D0000000000000000000000000000000000000
:1020E00000000000000000000000000000000000F0
:1020F00000000000000000000000000000000000E0
:0C210000000000000000000000000000D3
:10210C003130303031303030E80300001000002026
:10211C0000000000CC200008EC200008AC200008D7
:10212C0000000000000000000000000000000000A3
:10213C000000000000000000000000000000000093
:10214C000000000000000000000000000000000083
:10215C000000000000000000000000000000000073
:10216C000000000000000000000000000000000063
:0C217C0000093D0000093D0000093D0085
:0400000508001D5D75
:00000001FF
