:020000040800F2
:100000000080022095220008A1090008A309000829
:10001000A5090008A7090008A909000800000000B8
:10002000000000000000000000000000AB09000814
:10003000AD09000800000000AF090008B109000880
:10004000E5220008E5220008E5220008E522000874
:10005000E5220008E5220008E5220008E522000864
:10006000E5220008E5220008E5220008E522000854
:10007000E5220008E5220008E5220008E522000844
:10008000E5220008E5220008E5220008E522000834
:10009000E5220008E5220008E5220008E522000824
:1000A000E5220008E5220008E5220008E522000814
:1000B000E5220008E522000800000000E522000813
:1000C000E5220008E5220008E5220008E5220008F4
:1000D000E5220008E5220008E5220008E5220008E4
:1000E000E5220008E52200080000000000000000F2
:1000F0000000000000000000000000000000000000
:1001000000000000E522000800000000E5220008D1
:10011000E522000800000000E522000800000000C1
:10012000E5220008E5220008E5220008E522000893
:10013000E5220008E5220008E52200080000000092
:10014000E5220008E5220008E5220008E522000873
:10015000E5220008E5220008E5220008E522000863
:10016000E5220008E5220008E52200080000000062
:1001700000000000E5220008000000000000000070
:10018000E5220008E5220008E5220008E522000833
:08019000E52200080000000058
:1001A00010B5054C237833B9044B13B10448AFF3B1
:1001B00000800123237010BD6800002000000000B3
:1001C000682B000808B5034B1BB103490348AFF384
:1001D000008008BD000000006C000020682B0008B3
:1001E000034613F8012B002AFBD1181A0138704777
:1001F00001F0FF01102A2BDB10F0070F08D010F8D8
:10020000013B013A8B422DD010F0070F42B3F6D1DB
:10021000F0B441EA012141EA014122F007047FF0F4
:1002200000070023F0E80256083C85EA010586EA4B
:10023000010685FA47F5A3FA87F586FA47F6A5FA87
:1002400087F68EB9EED1F0BC01F0FF0102F0070293
:1002500032B110F8013B013A83EA010313B1F8D13E
:100260000020704701387047002D06BF354603381F
:10027000073815F0010F07D1013015F4807F02BF58
:10028000013015F4C03F0130F0BC0138704700BFA9
:1002900053B94AB9002908BF00281CBF4FF0FF31ED
:1002A0004FF0FF3000F072B9ADF1080C6DE904CEEB
:1002B00000F006F8DDF804E0DDE9022304B0704741
:1002C0002DE9F047089E04468846002B4BD18A4210
:1002D000154667D9B2FA82F24AB1C2F1200701FA93
:1002E00002F320FA07F7954047EA030894404FEAE3
:1002F000154E230CB8FBFEF71FFA85FC0EFB178882
:1003000043EA084307FB0CF1994209D9EB1807F1BE
:10031000FF3080F01B81994240F21881023F2B444C
:100320005B1AA4B2B3FBFEF00EFB103344EA0344A5
:1003300000FB0CFCA44509D92C1900F1FF3380F017
:100340000781A44540F2048102382C4440EA07406A
:10035000A4EB0C0400271EB1D4400023C6E90043DF
:100360003946BDE8F0878B4209D9002E00F0EB80BA
:100370000027C6E9000138463946BDE8F087B3FAE0
:1003800083F7002F47D18B4202D3824200F2FA80DA
:10039000841A61EB030301209846002EE0D0C6E9E1
:1003A0000048DDE702B9FFDEB2FA82F2002A40F02F
:1003B0008F80491B4FEA154E1FFA85F80127B1FBC4
:1003C000FEFC230C0EFB1C1143EA014308FB0CF15D
:1003D000994207D9EB180CF1FF3002D2994200F292
:1003E000CD808446591AA3B2B1FBFEF00EFB101467
:1003F00043EA044408FB00F8A04507D92C1900F192
:10040000FF3302D2A04500F2B6801846A4EB0804E0
:1004100040EA0C409FE7C7F1200CBB4022FA0CFEDB
:100420004EEA030E01FA07F420FA0CF521FA0CF358
:100430004FEA1E482543B3FBF8F92C0C08FB19338F
:100440001FFA8EFA44EA034309FB0AF49C4202FABB
:1004500007F200FA07F10BD91EEB030309F1FF3095
:1004600080F087809C4240F28480A9F102097344A5
:100470001B1BADB2B3FBF8F008FB103345EA034495
:1004800000FB0AFAA24508D91EEB040400F1FF3371
:100490006BD2A24569D90238744440EA0940A0FBF6
:1004A0000289A4EB0A044C45C2464B4654D351D0B2
:1004B000002E69D0B1EB0A0564EB030404FA0CFCCE
:1004C000FD40FC404CEA0505C6E90054002747E71B
:1004D000C2F1200320FA03F7954001FA02F021FA55
:1004E00003F34FEA154E3843010CB3FBFEF71FFA36
:1004F00085F80EFB173341EA034107FB08F38B42F3
:1005000004FA02F407D9691807F1FF3C2FD28B4295
:100510002DD9023F2944CB1A81B2B3FBFEF00EFB6A
:10052000103341EA034100FB08F38B4207D96918F5
:1005300000F1FF3C17D28B4215D902382944C91A61
:1005400040EA07473BE73746304609E70746E7E614
:100550001846FBE64145ABD2B8EB020A69EB0E0246
:1005600001381346A4E76046E9E7184695E7674671
:10057000D1E781467CE702382C4447E7ACF1020C16
:100580002B442FE7384608E73746E9E6704700BFB7
:1005900030B58BB000240594069407940894099410
:1005A000274BDA6C42F00402DA64DA6C02F00402DF
:1005B0000192019ADA6C42F08002DA64DA6C02F09D
:1005C00080020292029ADA6C42F00102DA64DA6C7A
:1005D00002F001020392039ADA6C42F00202DA643A
:1005E000DB6C03F002030493049B224620214FF0AE
:1005F000904001F07AFD4FF400530593114B0693A0
:10060000079405A9104801F09FFC202305930125BC
:1006100006950794089405A94FF0904001F094FCCA
:100620004FF4407305931223069307950323089311
:100630000423099305A9054801F086FC0BB030BDE1
:10064000001002400000211000080048000400488B
:1006500008B50948094B03604FF4E13343600023B8
:100660008360C36003610C2242618361C3610362E2
:10067000436200F014FD08BD9000002000440040DB
:1006800030B5B1B02422002120A801F051FE002491
:100690001A941B941C941D941E946822214668464B
:1006A00001F046FE02251F954FF4807322934023EC
:1006B000239329952A9501232B930A232C9307230F
:1006C0002D932E952F951FA800F00EFE0F231A9341
:1006D00003231B931C941D941E9404211AA801F05B
:1006E000DDF800950994684601F062FA4FF4007055
:1006F00001F008FD31B030BDF0B58BB000F01CFD4D
:10070000FFF7BEFFFFF744FFFFF7A2FF974D984C9E
:100710004FF0FF3302222946204600F021FC4FF023
:10072000FF3328229349204600F01AFC4FF0FF3394
:100730000A229149204600F013FC4FF0FF330A22B1
:100740008E49204600F00CFC4FF0FF330D228C49FF
:10075000204600F005FC4FF0FF330B22894920466C
:1007600000F0FEFB4FF0FF3301228749204600F0E6
:10077000F7FB4FF0FF3308228449204600F0F0FBDE
:100780004FF0FF3302222946204600F0E9FB4FF0EC
:10079000FF3302222946204600F0E2FB4FF0FF33F0
:1007A00026227B49204600F0DBFB00F0E3FC00F54D
:1007B0001676012220214FF0904001F096FC002592
:1007C0002F4615E0002220214FF0904001F08DFCD3
:1007D00000F0D0FC00F5167601254FF400516D486D
:1007E00001F07CFC002840F0AC80002F40F09880A5
:1007F00000F0C0FC04468642EFD80A2DEDD801A3D4
:1008000053F825F0C507000831080008490800081A
:10081000610800087908000891080008A908000884
:10082000C1080008D9080008F108000809090008F3
:10083000012220214FF0904001F057FC00F09AFC7B
:1008400000F516760225C8E7002220214FF09040DF
:1008500001F04BFC00F08EFC00F516760325BCE79A
:10086000012220214FF0904001F03FFC00F082FC7B
:1008700000F1C8060425B0E7002220214FF0904087
:1008800001F033FC00F076FC00F1C8060525A4E772
:10089000012220214FF0904001F027FC00F06AFC7B
:1008A00000F1C806062598E7002220214FF090406D
:1008B00001F01BFC00F05EFC00F1C80607258CE788
:1008C000012220214FF0904001F00FFC00F052FC7B
:1008D00000F51676082580E7002220214FF0904091
:1008E00001F003FC00F046FC00F5AF66092574E753
:1008F000012220214FF0904001F0F7FB00F03AFC7C
:1009000000F51676002568E7012220214FF090407F
:1009100001F0EBFB00F02EFC00F5167600255CE7FD
:1009200022461D49684601F00BFD6846FFF758FC5A
:100930004FF0FF3382B269460D4800F011FB0027EB
:1009400056E7002F7FF454AF22461449684601F061
:10095000F7FC6846FFF744FC4FF0FF3382B269466C
:10096000034800F0FDFA012742E700BF102C000801
:1009700090000020802B0008AC2B0008B82B00084A
:10098000C42B0008D42B0008D02B0008E02B000853
:10099000EC2B000800080048142C0008302C00083C
:1009A0007047FEE7FEE7FEE7FEE7704770477047D7
:1009B00008B500F0D7FB08BD82B00A4B1A6E42F0B2
:1009C00001021A661A6E02F001020092009A9A6DF4
:1009D00042F080529A659B6D03F080530193019B16
:1009E00002B070470010024000B589B000230393A5
:1009F00004930593069307930268144B9A4202D01E
:100A000009B05DF804FB03F5E6339A6D42F4003259
:100A10009A659A6D02F400320192019ADA6C42F002
:100A20000102DA64DB6C03F001030293029B0C23E6
:100A3000039302230493032306930723079303A935
:100A40004FF0904001F080FADAE700BF0044004028
:100A50002DE9F0480446016883680269134342693E
:100A60001343C269134308689F4A024013430B6053
:100A70002268536823F44053E1680B435360A16933
:100A800022689A4B9A4201D0236A1943936823F44F
:100A900030630B4393602368954A934223D0954A71
:100AA000934234D0944A93424AD0944A93425DD0C0
:100AB0008E4A934270D010258C4A934200F08F806A
:100AC000E369B3F5004F00F00581082D00F2A28123
:100AD000DFE815F0620178018201A0018D01A0011B
:100AE000A001A001970102F55842D2F8882002F037
:100AF0000302032A09D8DFE802F002046806012590
:100B0000DAE70425D8E70825D6E71025D4E702F56B
:100B1000E632D2F8882002F00C020C2A0ED8DFE868
:100B200002F0070D0D0D090D0D0D560D0D0D0B00ED
:100B30000025C1E70425BFE70825BDE71025BBE771
:100B400002F5E432D2F8882002F03002102A09D0EF
:100B500005D9202A3DD0302A06D10825ACE71AB99C
:100B60000025A9E70425A7E71025A5E702F5E2324D
:100B7000D2F8882002F0C002402A09D005D9802A84
:100B800029D0C02A06D1082596E71AB9002593E78F
:100B9000042591E710258FE702F5C832D2F88820A6
:100BA00002F44062B2F5806F0BD007D9B2F5006F46
:100BB00013D0B2F5406F06D108257DE71AB900259C
:100BC0007AE7042578E7102576E7022574E7022501
:100BD00072E7022570E702256EE702256CE7082D13
:100BE00000F21B81DFE815F00C0019011400190157
:100BF000110019011901190109004FF4004008E022
:100C000000F0FCFE28B90020D7E000F001FBF9E776
:100C10003B48626802EB4203834200F20081B0EB82
:100C2000023F00F2FE80082D51D8DFE805F00550A4
:100C3000205030505050430000F0E0FE0025070ED9
:100C40000602626850082B4616EB000B47F1000CB9
:100C500058466146FFF71CFB03462846A3F5407142
:100C6000284A914200F2DF802268D360A5E056084E
:100C700000252B46DFF890B04FF0000C1BEB060070
:100C80004CF10001FFF704FB03462846E6E700F0BD
:100C9000BFFA0025070E0602626850082B4616EBC5
:100CA000000B47F1000C58466146FFF7F1FA034686
:100CB0002846D3E75008002700252B4610F50000F2
:100CC00047F10001FFF7E4FA03462846C6E7012092
:100CD0000023C3E7082D5CD8DFE805F018313C5B42
:100CE000475B5B5B520000BFF369FFEF0080004091
:100CF000003801400044004000480040004C0040E3
:100D00000024F400FFFC0F00000024F400F076FE45
:100D10006268530803EB4003B3FBF2F39BB200207D
:100D2000A3F110014FF6EF7291427ED89AB222F0F1
:100D30000F02C3F3420313432268D3603DE000F087
:100D40006FFE6268530803EB4003B3FBF2F39BB200
:100D50000020E5E76268530803F1F47303F590435C
:100D6000B3FBF2F39BB20020DAE700F051FA6268BD
:100D7000530803EB4003B3FBF2F39BB20020CFE731
:100D80006268530803F58033B3FBF2F39BB2002093
:100D9000C6E701200023C3E700F030FE636800EBE4
:100DA0005302B2FBF3F292B20020A2F110014FF60F
:100DB000EF7399423BD82368DA60002222666266AC
:100DC000BDE8F08800F02CFE636800EB5302B2FB34
:100DD000F3F292B20020E8E763685A0802F5740261
:100DE00002F51052B2FBF3F292B20020DDE700F000
:100DF0000FFA636800EB5302B2FBF3F292B20020E9
:100E0000D3E763685A0802F50042B2FBF3F292B2EC
:100E10000020CAE701200022C7E70120CDE701201A
:100E2000CBE70120C9E70120C7E70120C5E7012082
:100E3000C3E700BF436A13F0010F06D0026853688E
:100E400023F40033816A0B435360436A13F0020FAB
:100E500006D00268536823F48033C16A0B435360A1
:100E6000436A13F0040F06D00268536823F480230A
:100E7000016B0B435360436A13F0080F06D00268FE
:100E8000536823F40043416B0B435360436A13F0F0
:100E9000100F06D00268936823F48053816B0B43D4
:100EA0009360436A13F0200F06D00268936823F41E
:100EB0000053C16B0B439360436A13F0400F0AD099
:100EC0000268536823F48013016C0B435360036C76
:100ED000B3F5801F0BD0436A13F0800F06D0026871
:100EE000536823F40023816C0B43536070470268FE
:100EF000536823F4C003416C0B435360EBE72DE9C7
:100F0000F04105460F4616469846069C2B68DB695D
:100F100037EA03030CBF01230023B3421DD1B4F110
:100F2000FF3FF3D02CB100F025F9A0EB0800A04260
:100F3000ECD92A68136823F4D07313602A68936885
:100F400023F001039360202385F8713085F8723017
:100F5000002385F87030032000E00020BDE8F08118
:100F60002DE9F04182B01E4690F87130DBB2202BA3
:100F70004ED104460D46904600294ED0002A4ED050
:100F800090F87030012B4CD0012380F87030002392
:100F90004367212380F8713000F0ECF80746A4F88D
:100FA0005080A4F8528009E023682A781A85013518
:100FB000B4F85230013B9BB2A4F85230B4F852302E
:100FC0009BB2ABB100963B46002280212046FFF742
:100FD00096FF40BBA368B3F5805FE5D12369002B82
:100FE000E2D1226835F8023BC3F308031385DFE73B
:100FF00000963B46002240212046FFF780FF034633
:1010000098B9202284F87120002284F8702000E032
:101010000223184602B0BDE8F0810123F9E701235D
:10102000F7E70223F5E70323F3E70323F1E730B5FE
:1010300083B004460023436700F09CF8054623680C
:101040001B6813F0080F0ED123681B6813F0040F00
:1010500017D1202384F8713084F87230002084F88E
:10106000700003B030BD6FF07E4300930346002252
:101070004FF400112046FFF742FF0028E4D0032080
:10108000EFE76FF07E4300932B4600224FF4800180
:101090002046FFF734FF0028DBD00320E1E778B3D8
:1010A00010B5044690F871300BB3242384F87130E6
:1010B0002268136823F0010313602046FFF7C8FC81
:1010C000012813D0636ABBB92268536823F49043A4
:1010D00053602268936823F02A03936022681368A0
:1010E00043F0010313602046FFF7A1FF10BD80F815
:1010F0007030FFF779FCD8E72046FFF79BFEE3E767
:101100000120704710B50446094B1868094BA3FB32
:101110000030800901F084F808B1012010BD0022E0
:1011200021464FF0FF3001F047F80020F6E700BFFE
:1011300000000020D34D621010B5094A136843F433
:1011400080731360032001F025F80020FFF7DAFF19
:1011500010B10124204610BD0446FFF72DFCF9E72D
:1011600000200240024A136801331360704700BF39
:1011700008010020014B1868704700BF08010020DB
:1011800030B583B00546204B9B6D13F0805F0BD0CC
:1011900000F0B0FFB0F5007F17D0802D1FD82DD004
:1011A000702D2DD000211BE0174CA36D43F0805310
:1011B000A365A36D03F080530193019B00F09AFF98
:1011C000A36D23F08053A365E4E7802D03D9A02D00
:1011D00003D9022104E0002102E0012100E0032103
:1011E0000A4A136823F007030B431360136803F0E4
:1011F00007038B4206D0012003B030BD0221EFE788
:101200000121EDE70020F7E7001002400020024036
:10121000314A9368D26802F0030213F00C030AD03B
:101220000C2B06D0042B1FD0082B20D00020014609
:1012300010E0012AF6D1284A126812F0080F0CD1EA
:10124000254AD2F89420C2F30322244951F82210EF
:1012500043B100200C2B0DD070471F4A1268C2F317
:101260000312F2E70846F5E71D480021F2E71D48A2
:101270000021EFE7184BDA6802F00302DB68C3F3E2
:1012800002130133022A0AD0032A1AD0B1FBF3F366
:10129000114AD068C0F3062000FB03F008E01048B4
:1012A000B0FBF3F30C4AD068C0F3062000FB03F058
:1012B000094BDB68C3F3416301335B00B0FBF3F020
:1012C000CAE70848B0FBF3F3034AD068C0F306202E
:1012D00000FB03F0ECE700BF00100240682C0008A0
:1012E0000024F40000127A00002800F0C182F0B55A
:1012F00083B00446AC4B9D6805F00C05DE6806F033
:101300000306036813F0100F5DD0E5B10C2D18D063
:10131000A369002B00F0B780A34A136843F00103D0
:101320001360FFF727FF07469F4B1B6813F0020F60
:1013300040F09680FFF71EFFC01B0228F4D903235C
:10134000A2E2012EE4D1984B1B6813F0020F03D0E8
:10135000A369002B00F08F82206A934B1B6813F067
:10136000080F5DD0904B1B6803F0F00398425ED9E4
:10137000FFF706FF002840F080828B4B1A6842F08E
:1013800008021A601A6822F0F002216A0A431A6001
:101390005A6822F47F42E16942EA01225A60FFF76B
:1013A00037FF814B9B68C3F30313804AD35C03F080
:1013B0001F03D8407E4B18600020FFF7A3FE0346B2
:1013C000002840F06182236813F0010F7AD0082DC5
:1013D0006FD00C2D6BD06368B3F5803F00F0918027
:1013E000B3F5A02F00F093806F4B1A6822F480327F
:1013F0001A601A6822F480221A606368002B00F0D9
:101400009380FFF7B7FE0746674B1B6813F4003F56
:1014100058D1FFF7AFFEC01B6428F5D9032333E290
:10142000614BD3F894301B0903F0F0039EE75E4B49
:101430001A6842F008021A601A6822F0F002216A63
:101440000A431A605A6822F47F42E16942EA0122A3
:101450005A60206AFFF794FE0028A0D0012313E20F
:10146000514B1A6842F008021A601A6822F0F00222
:10147000216A0A431A605A6822F47F42E16942EA0B
:1014800001225A609FE7484A136823F00103136062
:10149000FFF770FE0746444B1B6813F0020F92D013
:1014A000FFF768FEC01B0228F5D90323ECE1032EE9
:1014B00091D13D4B1B6813F4003F03D06368002BB0
:1014C00000F0DD81236813F0020F4FD0042D3CD0D3
:1014D0000C2D38D0E368002B75D0334A136843F4E1
:1014E00080731360FFF746FE06462F4B1B6813F40C
:1014F000806F5FD1FFF73EFE801B0228F5D90323E2
:10150000C2E1294A136843F48033136075E703F19D
:101510008043A3F53C331A6842F480221A601A68AB
:1015200042F480321A6068E7FFF724FE07461E4B3C
:101530001B6813F4003FC5D0FFF71CFEC01B6428D6
:10154000F5D90323A0E1022EC4D1174B1B6813F475
:10155000806F03D0E368002B00F09381124A536838
:1015600023F0FE43216943EA01635360236813F0CB
:10157000080F53D06369002B39D00B4AD2F894304E
:1015800043F00103C2F89430FFF7F4FD0646064B22
:10159000D3F8943013F0020F40D1FFF7EBFD801B1E
:1015A0000228F4D903236FE100100240502C0008F8
:1015B00000000020B74A536823F0FE43216943EA44
:1015C00001635360D2E7B34A136823F48073136056
:1015D000FFF7D0FD0646AF4B1B6813F4806FC5D0F4
:1015E000FFF7C8FD801B0228F5D903234CE1A94A67
:1015F000D2F8943023F00103C2F89430FFF7BAFD1B
:101600000646A44BD3F8943013F0020F06D0FFF730
:10161000B1FD801B0228F4D9032335E1236813F0C0
:10162000040F7AD09B4B9B6D13F0805F0BD1994BCD
:101630009A6D42F080529A659B6D03F0805301933E
:10164000019B012600E00026934B1B6813F4807F6A
:1016500026D0A368012B37D0052B3DD08D4BD3F876
:10166000902022F00102C3F89020D3F8902022F0BD
:101670000402C3F89020A368002B3BD0FFF77AFD4B
:101680000746844BD3F8903013F0020F44D1FFF794
:1016900071FDC01B41F288339842F2D90323F3E075
:1016A0007D4A136843F480731360FFF763FD0746B8
:1016B000794B1B6813F4807FCBD1FFF75BFDC01B18
:1016C0000228F5D90323DFE0724AD2F8903043F0C4
:1016D0000103C2F89030CEE76E4BD3F8902042F071
:1016E0000402C3F89020D3F8902042F00102C3F81E
:1016F0009020C0E7FFF73EFD0746664BD3F89030D9
:1017000013F0020F08D0FFF735FDC01B41F28833FC
:101710009842F2D90323B7E0E6B9236813F0200F0B
:1017200035D0636AE3B15B4AD2F8983043F00103E5
:10173000C2F89830FFF71EFD0646564BD3F8983096
:1017400013F0020F23D1FFF715FD801B0228F4D9F7
:10175000032399E04F4A936D23F080539365DCE7B0
:101760004C4AD2F8983023F00103C2F89830FFF7C2
:1017700001FD0646474BD3F8983013F0020F06D010
:10178000FFF7F8FC801B0228F4D903237CE0A36A4E
:10179000002B78D00C2D7AD0022B23D03D4B1A6829
:1017A00022F080721A601B6813F0006F04D1394A6E
:1017B000D36823F00303D360364AD36823F08873D9
:1017C00023F48033D360FFF7D5FC0446314B1B680C
:1017D00013F0007F4AD0FFF7CDFC001B0228F5D99B
:1017E000032351E02B4A136823F080731360FFF743
:1017F000C1FC0546274B1B6813F0007F06D0FFF79E
:10180000B9FC401B0228F5D903233DE0236B5A1E87
:10181000636B1B0243EA0213E26A1343E26B520852
:10182000013A43EA4253226C5208013A43EA4263C6
:10183000A26B43EAC263174AD360136843F0807314
:101840001360D36843F08073D360FFF793FC0446C2
:10185000104B1B6813F0007F06D1FFF78BFC001BB9
:101860000228F5D903230FE000230DE000230BE04D
:10187000012318467047012306E0012304E00123F9
:1018800002E0012300E00023184603B0F0BD01236D
:10189000FAE700BF0010024000700040002800F08E
:1018A0009A8070B504464E4B1B6803F007038B42C9
:1018B0000CD24B4A136823F007030B4313601368E1
:1018C00003F007038B4201D0012070BD0D46236851
:1018D00013F0010F39D06368032B09D0022B26D0F7
:1018E00063BB404A126812F0020F06D10120ECE7F8
:1018F0003C4A126812F0007F6FD03A498A6822F0A1
:10190000030213438B60FFF735FC0646354B9B689B
:1019100003F00C036268B3EB820F16D0FFF72AFCCA
:10192000801B41F288339842F0D90320CDE72D4A3D
:10193000126812F4003FE0D10120C6E7294A12687C
:1019400012F4806FD9D10120BFE7236813F0020F92
:1019500006D0244A936823F0F003A1680B439360F8
:101960001F4B1B6803F00703AB420CD91C4A1368DA
:1019700023F007032B431360136803F00703AB4204
:1019800001D00120A1E7236813F0040F06D0154A07
:10199000936823F4E063E1680B439360236813F0DA
:1019A000080F07D00F4A936823F46053216943EA74
:1019B000C1039360FFF72CFC0A4B9B68C3F303132E
:1019C000094AD35C03F01F03D840084B186000207D
:1019D000FFF798FB79E701207047012075E700BF0A
:1019E0000020024000100240502C0008000000209F
:1019F000014B1868704700BF0000002008B5FFF7D2
:101A0000F7FF054B9B68C3F30223044AD35C03F042
:101A10001F03D84008BD00BF00100240602C000822
:101A200008B5FFF7E5FF054B9B68C3F3C223044AE3
:101A3000D35C03F01F03D84008BD00BF0010024074
:101A4000602C0008F8B5594BDB6813F0030F18D071
:101A5000564BDB6803F003030268934202D0012572
:101A60002846F8BD002A00F09F80504BDB68C3F386
:101A7000021301334268934201D00125F0E70025AB
:101A80001AE00368022B58D0032B5DD0012B01D044
:101A900001250FE0454A126812F0020F60D0434D55
:101AA000EA6822F073024468013C43EA04131343DA
:101AB000EB600025002DD3D10F4604463B4A136846
:101AC00023F080631360FFF755FB0646374B1B6816
:101AD00013F0006F05D0FFF74DFB801B0228F5D9EE
:101AE0000325002DBCD1002F3CD130490B6923F0D8
:101AF000784323F4FE43A068E268D20642EA00225B
:101B000013430B61294A136843F080631360FFF7A6
:101B100031FB0646254B1B6813F0006F05D1FFF71C
:101B200029FB801B0228F5D90325002D98D11F4AD7
:101B30001369A1690B43136192E71C4A126812F4FE
:101B4000806FACD10125B5E7184A126812F4003F46
:101B5000A5D1164A126812F4802FA0D10125A9E759
:101B60000125A7E7012F0FD01048026922F0C062BB
:101B700022F4FE42A16863695B08013B5B0643EA0D
:101B8000012313430361BDE70848026922F4C00240
:101B900022F4FE42A16823695B08013B5B0543EA2E
:101BA000012313430361ADE7012559E7001002400B
:101BB0002DE9F04182B00446036813F4006F26D08B
:101BC000C36CB3F5000F06D0B3F5400F1DD09BB129
:101BD000012637461DE0BE4AD36843F48033D36004
:101BE0000027BB4AD2F8883023F44003E16C0B4352
:101BF000C2F8883000260CE000210430FFF722FFF5
:101C000007460028EDD0064603E00027E9E7002656
:101C10003746236813F4003F6BD0AD4B9B6D13F038
:101C2000805F4CD1AA4B9A6D42F080529A659B6DB1
:101C300003F080530193019B4FF00108A54A1368FC
:101C400043F480731360FFF795FA0546A14B1B68B8
:101C500013F4807F05D1FFF78DFA401B0228F5D9D8
:101C60000327002F40D19A4BD3F8903013F44073E0
:101C700015D0626E9A4212D0954AD2F8903023F471
:101C80004073D2F8901041F48031C2F89010D2F82D
:101C9000901021F48031C2F89010C2F8903013F007
:101CA000010F0FD1002F40F01181894AD2F89030F6
:101CB00023F44073616E0B43C2F8903015E04FF08F
:101CC0000008BBE7FFF756FA0546814BD3F8903082
:101CD00013F0020FE6D1FFF74DFA401B41F28833B3
:101CE0009842F2D90327DDE73E46B8F1000F40F0F5
:101CF000F380236813F0010F08D0754AD2F88830BA
:101D000023F00303216A0B43C2F88830236813F0E1
:101D1000020F08D06E4AD2F8883023F00C03616AB3
:101D20000B43C2F88830236813F0040F08D0684AC8
:101D3000D2F8883023F03003A16A0B43C2F8883010
:101D4000236813F0080F08D0614AD2F8883023F0D6
:101D5000C003E16A0B43C2F88830236813F0200FF8
:101D600008D05B4AD2F8883023F44063216B0B43E0
:101D7000C2F88830236813F4007F08D0544AD2F8A0
:101D8000883023F44023616C0B43C2F88830236809
:101D900013F4806F08D04E4AD2F8883023F44013F1
:101DA000A16C0B43C2F88830236813F0400F08D0B1
:101DB000474AD2F8883023F44053616B0B43C2F892
:101DC0008830236813F0800F08D0414AD2F8883059
:101DD00023F44043A16B0B43C2F88830236813F40B
:101DE000807F08D03A4AD2F8883023F44033E16B40
:101DF0000B43C2F88830236813F4801F08D0344A9C
:101E0000D2F89C3023F00303216C0B43C2F89C30C2
:101E1000236813F4005F0FD02D4AD2F8883023F0E6
:101E20004063216D0B43C2F88830236DB3F1006F1E
:101E300058D0B3F1806F5AD0236813F4002F0FD01D
:101E4000234AD2F8883023F04063616D0B43C2F817
:101E50008830636DB3F1006F51D0B3F1806F53D010
:101E6000236813F4802F0FD0194AD2F8883023F05A
:101E70004063A16D0B43C2F88830A36DB3F1006FCE
:101E80004AD0B3F1806F4CD0236813F4804F0CD04C
:101E90000F4AD2F8883023F04053E16D0B43C2F86B
:101EA0008830E36DB3F1805F43D0236813F4803F43
:101EB00008D0074AD2F8883023F00043216E0B4344
:101EC000C2F88830304602B0BDE8F0813E460CE7EB
:101ED00000100240007000401A4A936D23F08053B6
:101EE000936506E7D36843F48013D360A4E7012128
:101EF000201DFFF7A7FD00289ED006469CE7D3686B
:101F000043F48013D360ABE70121201DFFF79AFD56
:101F10000028A5D00646A3E7D36843F48013D36016
:101F2000B2E70121201DFFF78DFD0028ACD0064649
:101F3000AAE70221201DFFF785FD0028B5D006463F
:101F4000B3E700BF00100240F0B482B0002336E0D7
:101F5000042400E00024B4403C4302355B4E46F8C4
:101F600025405B4C2568D44304EA05064F6817F406
:101F7000803F01D042EA0506554D2E606D6804EAA7
:101F800005064F6817F4003F01D042EA0506504DA0
:101F90006E60AD6804EA05064F6817F4801F01D033
:101FA00042EA05064A4DAE60ED682C404E6816F4D4
:101FB000001F01D042EA0504454AD46001330A6893
:101FC00032FA03F47ED001249C402240F6D04D68C2
:101FD000022D01D0122D10D1DE08083650F826C08F
:101FE00003F00705AF000F25BD402CEA050C0D6975
:101FF000BD4045EA0C0540F8265006685F00032501
:10200000BD40ED4305EA060C4E6806F00306BE40EF
:1020100046EA0C0606604E6806F1FF3CBCF1010F73
:1020200003D9112E01D0122E10D1866805EA060CB4
:10203000CE68BE4046EA0C068660466826EA04047E
:102040004E68C6F300169E4026434660C46825408D
:102050008C68BC402C43C4604C6814F0805FADD0E9
:102060001C4C256E45F001052566246E04F0010424
:102070000194019C9D08AE1C144C54F8267003F08A
:102080000304A6000F24B44027EA0407B0F1904FE0
:102090003FF460AF104CA0420ED004F58064A04223
:1020A0000CD004F58064A0420AD004F58064A042FC
:1020B0003FF44EAF07244EE701244CE702244AE7E1
:1020C000032448E702B0F0BC704700BF00000140A5
:1020D0000004014000100240000400480369194256
:1020E00001D100207047012070470AB98162704712
:1020F00081617047024B186800F4C060704700BFF0
:1021000000700040B0F5007F0FD01F4B1B6803F438
:10211000C063B3F5806F34D01B4A136823F4C063E7
:1021200043F48063136000207047174B1B6803F46F
:10213000C063B3F5007F22D0134A136823F4C06351
:1021400043F400731360114B1A68322303FB02F34C
:102150000F4AA2FB03239B0C013300E0013B0A4A18
:10216000526912F4806F01D0002BF7D1064B5B69E6
:1021700013F4806F01D100207047032070470020C6
:1021800070470020704700BF007000400000002032
:1021900083DE1B43074AD36823F4E0631B041B0C54
:1021A000000200F4E060184340F0BF6040F40030EB
:1021B000D060704700ED00E030B4174BDB68C3F32C
:1021C0000223C3F10704042C28BF04241D1D062D7F
:1021D00018D9033B4FF0FF3505FA04F421EA040156
:1021E000994005FA03F322EA0303194300280BDBA5
:1021F0000901C9B200F1604000F5614080F80013A8
:1022000030BC70470023E5E700F00F000901C9B2B8
:10221000024B1954F4E700BF00ED00E014ED00E0BC
:102220000138B0F1807F0AD2064B5860064AF0218F
:1022300082F823100020986007221A60704701205E
:10224000704700BF10E000E000ED00E00F49D1F85A
:10225000883043F47003C1F888300D4B1A6842F09F
:1022600001021A60002098601A6822F0A85222F435
:1022700010221A604FF48052DA601A6822F4802229
:102280001A6098614FF000638B60704700ED00E0CA
:1022900000100240DFF834D0002103E00C4B5B5803
:1022A000435004310B480C4B42189A42F6D30B4A68
:1022B00002E0002342F8043B094B9A42F9D3FFF7AE
:1022C000C5FF00F011F8FEF717FAFEE700800220C4
:1022D000E82C0008000000206800002068000020B2
:1022E00010010020FEE7000070B50D4E0D4CA41B40
:1022F000A4100025A54209D10B4E0C4C00F034FC73
:10230000A41BA4100025A54205D170BD56F82530A8
:1023100098470135EEE756F8253098470135F2E742
:10232000D82C0008D82C0008D82C0008DC2C000879
:1023300002440346934200D1704703F8011BF9E7BA
:102340000EB400B59CB01DAB029006906FF000413A
:10235000094807910491094953F8042B0591006835
:10236000019302A900F066F8029B00221A701CB0CB
:102370005DF804EB03B07047040000200802FFFF83
:102380002DE9F0478E689E4282460C46904699465B
:1023900037D88A8912F4906F31D0256809696F1A8D
:1023A0006569022305EB450595FBF3F509F101038A
:1023B0003B449D4238BF1D46530530D5294600F0A9
:1023C0002BFB064650B90C23CAF80030A38943F012
:1023D0004003A3814FF0FF30BDE8F0873A46216902
:1023E00000F0A8FAA38923F4906343F08003A3814B
:1023F000266165613E44ED1B2660A5604E464E4554
:1024000000D94E4632464146206800F09EFAA36845
:102410009B1BA36023681E4426600020DCE72A463D
:1024200000F054FB06460028E2D12169504600F036
:10243000A5FAC8E72DE9F04F1D468B891F069DB010
:1024400080460C4616460FD50B696BB9402100F04B
:10245000E3FA2060206128B90C23C8F800304FF05F
:10246000FF30C8E0402363610023099320238DF8E7
:10247000293030238DF82A3003954FF0010B374671
:102480003D4615F8013B0BB1252B3ED1B7EB060AB3
:102490000BD05346324621464046FFF771FF0130CC
:1024A00000F0A480099B534409933B78002B00F073
:1024B0009D8000234FF0FF32CDE90523049307935D
:1024C0008DF853301A932F46052217F8011B5048F8
:1024D000FDF78EFE049BD0B9D90644BF20228DF8AB
:1024E00053201A0744BF2B228DF853202A782A2A1A
:1024F00015D0079A2F4600200A25394611F8013BCE
:10250000303B092B4DD9B8B10FE02F46B8E7404A10
:10251000801A0BFA00F0184304903D46D3E7039A63
:10252000111D12680391002A01DB079204E0524258
:1025300043F00203079204933B782E2B0CD17B7857
:102540002A2B33D1039B1A1D1B680392002BB8BFA3
:102550004FF0FF33023705932E4D3978032228467A
:10256000FDF746FE38B14023401B03FA00F0049B00
:10257000034301370493397827488DF82810062241
:102580007E1CFDF735FE002838D0244B13BB039B7F
:10259000073323F0070308330393099B4B44099344
:1025A0006DE705FB023201200F46A6E70023013745
:1025B000059319460A25384610F8012B303A092AA6
:1025C00003D9002BC8D00591C6E705FB01210123E3
:1025D0000746F0E703AB00932246114B04A940469F
:1025E000AFF30080B0F1FF3F8146D6D1A3895B06EF
:1025F0003FF535AF09981DB0BDE8F08F03AB0093F0
:102600002246074B04A9404600F082F8EAE700BFE3
:10261000982C00089E2C0008A22C00080000000046
:10262000812300082DE9F04791461F468A680B690F
:10263000DDF820809342B8BF1346C9F8003091F806
:10264000432006460C4612B10133C9F80030236816
:10265000990642BFD9F800300233C9F80030256826
:1026600015F0060507D104F1190AE368D9F800202E
:102670009B1AAB4228DC94F843302268003318BF21
:10268000012392062DD404F1430239463046C04757
:10269000013020D02368E568D9F8002003F0060354
:1026A000042B08BFAD1AA36822690CBF25EAE575A3
:1026B00000259342C4BF9B1AED184FF000091A344D
:1026C0004D451AD1002008E00123524639463046D4
:1026D000C047013003D14FF0FF30BDE8F08701352E
:1026E000C3E7E1185A1C302081F84300224494F8D3
:1026F000451082F843100233C5E7012322463946CC
:102700003046C0470130E6D009F10109D8E70000A2
:102710002DE9F04301F1430C0C46097E85B06E298A
:102720001746064698460C9A00F0B38022D86329D3
:1027300036D00AD8002900F0B980582900F08380EB
:1027400004F1420584F8421032E0642901D069297D
:10275000F6D120681368050603F104012AD51B6829
:102760001160002B03DA2D225B4284F843206F486E
:102770000A2239E0732900F09D8008D86F2920D003
:102780007029DDD1236843F02003236003E075291D
:1027900017D07829D4D1782384F84530644855E09F
:1027A0001368191D1B68116004F1420584F842305A
:1027B00001238CE01B68116010F0400F18BF1BB2A2
:1027C000CFE713682568181D1060280601D51B681F
:1027D00002E06806FBD51B8854486F2914BF0A2203
:1027E0000822002184F843106568A560002DC0F21E
:1027F0009580216821F004012160002B3DD1002D3E
:1028000040F08E806546082A0BD12368DB0708D587
:10281000236962689A42DEBF302305F8013C05F166
:10282000FF35ACEB05032361CDF800803B4603AADE
:1028300021463046FFF7F6FE01304DD14FF0FF3014
:1028400005B0BDE8F083394884F845101368216865
:102850001D1D1B6815600A060BD5CA0744BF41F051
:10286000200121601BB9226822F020022260102280
:10287000B7E74D0648BF9BB2EFE76546B3FBF2F101
:1028800002FB1133C35C05F8013D0B460029F5D16D
:10289000B9E7136825686169181D106028061B6870
:1028A00001D5196002E06A06FBD519800023236177
:1028B0006546B9E71368191D11601D68626800213B
:1028C0002846FDF795FC08B1401B606063682361F2
:1028D000002384F84330A7E723692A463946304667
:1028E000C0470130AAD023689B0713D4E068039B3C
:1028F0009842B8BF1846A3E701234A4639463046F6
:10290000C04701309AD00135E368039A9B1AAB4265
:10291000F2DCEBE7002504F11909F5E7002BACD157
:10292000037884F8423004F142056CE7A92C0008D2
:10293000BA2C000810B5431E0A44914200D110BDC4
:1029400011F8014B03F8014FF7E7884210B501EB8E
:10295000020307D8421E99420AD011F8014B02F82F
:10296000014FF8E78342F5D98118D21AD34200D13A
:1029700010BD13F8014D01F8014DF7E738B50546D4
:10298000002945D051F8043C0C1F002BB8BFE418B7
:1029900000F0D2F81F4A1368104633B96360146020
:1029A0002846BDE8384000F0C8B8A3420CD92168D9
:1029B0006218934204BF1A685B68636004BF5218D0
:1029C00022600460ECE713465A680AB1A242FAD9C1
:1029D00019685818A0420BD1206801445818824247
:1029E0001960DDD1106852685A6001441960D7E758
:1029F00002D90C232B60D3E7206821188A4204BF38
:102A000011685268626004BF091821605C60C7E702
:102A100038BD00BF8400002070B5CD1C25F0030533
:102A200008350C2D38BF0C25002D064601DBA942C8
:102A300003D90C233360002070BD00F07DF8214ADB
:102A40001468214691B9204C23681BB9304600F028
:102A500063F820602946304600F05EF8431C24D11C
:102A60000C233360304600F068F8E4E70B685B1B2A
:102A700018D40B2B0FD90B60CD50CC18304600F07A
:102A80005CF804F10B00231D20F00700C31AD3D01B
:102A90005A42E250D0E78C424B6816BF6360136025
:102AA0000C46EBE70C464968CCE7C41C24F0030451
:102AB000A04205D0211A304600F02EF80130CFD0C8
:102AC0002560DBE78400002088000020F8B5074679
:102AD00014460E4621B91146BDE8F840FFF79CBFE9
:102AE00022B9FFF74BFF25462846F8BD00F026F82F
:102AF000A0420FD221463846FFF78EFF0546002838
:102B0000F2D031462246FFF715FF31463846FFF72F
:102B100035FFE9E73546E7E738B5064C00230546BB
:102B20000846236000F012F8431C02D1236803B169
:102B30002B6038BD0C0100207047704751F8043CF1
:102B4000181F002BBCBF0B58C0187047044A05491A
:102B50001368002B08BF0B461844106018467047D6
:102B60008C00002010010020F8B500BFF8BC08BCA4
:102B70009E467047F8B500BFF8BC08BC9E4670473B
:102B800057656C636F6D6520746F207468652054A1
:102B9000656E6E6573736565205465636820454393
:102BA0004520343134300D0A00000000457865635B
:102BB0007574696E672000005372632F6D61696ED2
:102BC0002E63000020636F6D70696C6564206F6E0A
:102BD000200000004A616E20313820323031390047
:102BE00031333A35393A35300000000050726573A0
:102BF000732074686520626C756520627574746FEB
:102C00006E20746F20626567696E2E2E2E2E0D0A5F
:102C10000D0A0000427574746F6E207072657373D4
:102C2000656420617420256C64206D732E0D0A008C
:102C3000427574746F6E2072656C65617365642093
:102C4000617420256C64206D732E0D0A0000000055
:102C5000000000000000000001020304060708094C
:102C60000000000001020304A0860100400D0300E3
:102C7000801A060000350C0040420F0080841E00C0
:102C800000093D0000127A000024F40000366E01B5
:102C90000048E801006CDC02232D302B2000686C1A
:102CA0004C0065666745464700303132333435366F
:102CB00037383941424344454600303132333435A8
:102CC00036373839616263646566000000000000D1
:082CD000F0D5FF7F01000000B8
:082CD800C50100080000000026
:082CE000A10100080000000042
:102CE80000093D000800002000000000000000006E
:102CF80000000000000000000000000000000000CC
:102D080000000000000000000000000000000000BB
:102D180000000000000000000000000000000000AB
:102D2800000000000000000000000000000000009B
:102D3800000000000000000000000000000000008B
:082D4800000000000000000083
:040000050800229538
:00000001FF
